:020000040800F2
:1000000078070020CD010008511A00087B0A00087B
:100010004D1A00087D020008571F0008000000006C
:10002000000000000000000000000000BD1B0008F0
:10003000B908000800000000C51A0008D11C00081B
:10004000E7010008E7010008E7010008E7010008F0
:10005000E7010008E7010008E7010008E7010008E0
:10006000E7010008E7010008E7010008E7010008D0
:10007000E7010008E7010008E7010008E7010008C0
:10008000E7010008E7010008E7010008E7010008B0
:10009000E7010008E7010008E7010008E7010008A0
:1000A000E7010008E7010008E7010008E701000890
:1000B000E7010008E7010008E7010008E701000880
:1000C000E7010008E7010008E7010008E701000870
:1000D000E7010008351D0008E7010008E7010008F6
:1000E000E7010008E7010008E7010008E701000850
:1000F000E7010008E7010008E7010008E701000840
:10010000E7010008E7010008E7010008E70100082F
:10011000E7010008E7010008E7010008E70100081F
:10012000E7010008E7010008E7010008E70100080F
:1001300000F002F800F03AF80AA090E8000C8244BF
:100140008344AAF10107DA4501D100F02FF8AFF29C
:10015000090EBAE80F0013F0010F18BFFB1A43F0A5
:1001600001031847EC2E02000C2F0200103A24BFA6
:1001700078C878C1FAD8520724BF30C830C144BF0C
:1001800004680C607047000000230024002500264E
:10019000103A28BF78C1FBD8520728BF30C148BFEA
:1001A0000B6070471FB51FBD10B510BD00F033F8D0
:1001B0001146FFF7F7FF01F041FF00F051F803B4DB
:1001C000FFF7F2FF03BC01F0C8FE000009488047BA
:1001D00009480047FEE7FEE7FEE7FEE7FEE7FEE729
:1001E000FEE7FEE7FEE7FEE704480549054A064B41
:1001F00070470000D51C000831010008780100207C
:1002000078070020780300207803002070477047AB
:10021000704770477047754600F02CF8AE460500F1
:100220006946534620F00700854618B020B5FFF711
:10023000DBFFBDE820404FF000064FF000074FF015
:1002400000084FF0000B21F00701AC46ACE8C009F4
:10025000ACE8C009ACE8C009ACE8C0098D467047FD
:1002600010B50446AFF300802046BDE81040FFF70C
:10027000A6BF0000004870471401002000BFFEE741
:1002800008B500F0ABF90121114800F0F2FB0421A0
:10029000104800F0EEFB322001F084FE04210D48EE
:1002A00000F0E9FB322001F07DFE0121084800F05A
:1002B000E2FB322001F076FE00F044FA142001F057
:1002C00071FE6A460121A72000F006F808BD000073
:1002D00000100140000C01402DE9F04107460D4699
:1002E00016464FF0000800F0F7F92A2000F098FABF
:1002F00000F0BCFAF8B200F093FA00F0B7FA00F0A0
:10030000EBF92B2000F08CFA00F0B0FA00240DE09D
:10031000681EA04204D1002000F02AFA305503E004
:10032000012000F025FA3055601CC4B2AC42EFDB6E
:1003300000F0EEF94FF001084046BDE8F081000002
:10034000F1B582B0002400275B480078401C5A4970
:100350000870084600780A2190FBF1F201FB1200B8
:1003600018B1554800780A286FDA02AA0121022044
:10037000FFF7B2FF9DF8080000F0800050B19DF833
:10038000080000F00F00062804DA002529460220A4
:1003900000F098F89DF8080000F00F00002853D0F6
:1003A0009DF8080000F00F0006287CDA9DF8080090
:1003B00000F00F01FF208840C5B24048067CE843AA
:1003C000C0B240F0C1003D4908740846018941812E
:1003D0008189C18100241CE03848007C0121A140B2
:1003E0000840A0B1364931F8140001AA0421FFF7F2
:1003F00073FF9DF80500C0F1F00081B22F4808306E
:1004000020F814109DF80710001D20F81410601C2F
:10041000C4B2022CE0DB012728480089F02803DC65
:1004200026488089F0281DDD9DF8080000F00F00A7
:1004300001280BDD21484089204908810846C089F0
:10044000888100201C4908702DE00FE01B4840897E
:100450001A4908810846C089888180200290084690
:10046000067420E00020144908701CE01348007C4A
:1004700000F0810070B11148007C20F080000F492D
:1004800008740020088188810846007C00F0E000A4
:10049000087408E000200949088188810846007C2A
:1004A00000F0E000087404480078F02802DD0A201B
:1004B000014908703846FEBD2800002014000020C5
:1004C0004C30020870B504460D4600F005F92A20AC
:1004D00000F0A6F900F0CAF9E0B200F0A1F900F0CE
:1004E000C5F9284600F09CF900F0C0F900F010F9B9
:1004F0000126304670BD00000EB500244FF6FF7097
:10050000F0231A4600210090084600F037FB5FE018
:100510003048416800208847002454E02D48007C82
:100520000121A1400840002846D0012001F03AFDF9
:100530002848083030F81400F02842DA25480C30FA
:1005400030F81400F0283CDA01A830F824004FF607
:10055000FF7188420DD11F48083030F8140001A9FE
:1005600021F824001B480C3030F8140001EB840102
:100570004880194830F81400164D0C35009035F8B5
:1005800014302D1F35F8142001AD05EB8405698862
:1005900001AD35F8240000F08DFA0E48083030F82F
:1005A000140001A921F824000A480C3030F8140086
:1005B00001EB8401488004E04FF6FF7001A921F8A7
:1005C0002400601CC4B2022CA8DB052001F0EAFC68
:1005D0009EE70000140000204830020808B5012101
:1005E000182001F071FA0420ADF8000010208DF8F9
:1005F000030003208DF802006946154800F05DF9FC
:100600000421134800F037FA0120ADF80000102053
:100610008DF8030003208DF8020069460D4800F0B4
:100620004CF901210B4800F026FA0320ADF8000038
:1006300010208DF8030003208DF80200694604485D
:1006400000F03BF90321024800F015FA08BD000054
:10065000000C01400010014010B501210D4800F0D0
:1006600008FA00F0C3F8052001F0C2FC0221094895
:1006700000F0FFF9052001F0BBFC0121054800F066
:10068000FAF9052001F0B4FC0121024800F0F1F96B
:1006900010BD0000000C014010B501210D4800F014
:1006A000E8F900F0A3F8052001F0A2FC02210948B6
:1006B00000F0E1F9052001F09BFC0121054800F064
:1006C000DAF9052001F094FC0121024800F0D1F98B
:1006D00010BD0000000C014010B500F087F80221A9
:1006E0000A4800F0C8F90121084800F0C4F90A20BE
:1006F00001F07EFC0221054800F0BBF9052001F065
:1007000077FC0121014800F0B4F910BD000C014054
:1007100010B500F06BF80121094800F0AAF9022198
:10072000074800F0A6F9052001F062FC0121044809
:1007300000F0A1F90221024800F09DF910BD00006F
:10074000000C014008B50121082001F0BDF904208A
:10075000ADF800008DF803006946044800F0ADF8DC
:100760000421024800F085F908BD0000000C01409A
:1007700070B5054600F024F8002615E001210F4869
:1007800000F077F9052001F033FC01210B4800F05F
:1007900072F96006040E0221084800F061F908B100
:1007A000601CC4B2701CC6B2082EE7DB15B9FFF797
:1007B00073FF01E0FFF750FF204670BD000C0140C1
:1007C00008B50121082001F07FF90220ADF80000F2
:1007D00048208DF803006946034800F06EF80221B6
:1007E000014800F046F908BD000C014008B50121A0
:1007F000082001F069F90220ADF8000010208DF802
:10080000030003208DF802006946044800F055F803
:100810000221024800F02FF908BD0000000C014041
:1008200070B50446FFF7E2FF01210E4800F021F900
:10083000002514E0E0090C4908606006040E01215F
:10084000084800F018F9052001F0D2FB0121054805
:1008500000F00FF9052001F0CBFB681CC5B2082D94
:10086000E8DB70BD000C01408481214210B50024FA
:10087000FFF7A6FF02210F4800F0FDF801210D4807
:1008800000F0F9F8052001F0B3FB07E0601CC4B2EA
:10089000FA2C03DDFFF73CFF012010BD02210548C3
:1008A00000F0DEF80028F1D10121024800F0E1F863
:1008B0000020F2E7000C014070472DE9F0410246AC
:1008C00000250026002000230024002791F803C003
:1008D0000CF00F0591F803C00CF0100CBCF1000FE8
:1008E00003D091F802C04CEA050591F800C0BCF1B4
:1008F000000F31D0146800202BE04FF0010C0CFAEF
:1009000000F3B1F800C00CEA03069E4220D1830038
:100910004FF00F0C0CFA03F7BC4305FA03FC4CEA4A
:10092000040491F803C0BCF1280F06D14FF0010C6C
:100930000CFA00FCC2F814C00AE091F803C0BCF144
:10094000480F05D14FF0010C0CFA00FCC2F810C0A2
:10095000401C0828D1D31460B1F800C0BCF1FF0FCF
:1009600034DD546800202EE000F1080C4FF001083F
:1009700008FA0CF3B1F800C00CEA03069E4221D13C
:1009800083004FF00F0C0CFA03F7BC4305FA03FC8D
:100990004CEA040491F803C0BCF1280F05D100F122
:1009A000080C08FA0CF8C2F8148091F803C0BCF1E6
:1009B000480F07D100F1080C4FF0010808FA0CF8B5
:1009C000C2F81080401C0828CED35460BDE8F081E6
:1009D000F0B50A46002300240021002500F000465F
:1009E000B6F1004F02D11D4EF16901E01B4E716856
:1009F000C0F3034583B200F44016B6F5401F08D19A
:100A000021F07061154E766826F07066134F7E6097
:100A100012E000F48016B6F5801F06D1032606FA10
:100A200005F4A14341F0706106E0460D360103FA7A
:100A300006F6B14341F0706122B1460D360103FA6A
:100A400006F6314300F00046B6F1004F02D1034EE6
:100A5000F16101E0014E7160F0BD00000000014055
:100A60000246002093680B400BB1012000E00020FB
:100A70007047416170470161704700BFFEE7F0B504
:100A800007460C4615461E462A2000F099FF3846B8
:100A900000F07CFF284600F079FF2B2000F090FF4B
:100AA000204600F073FF304600F070FF2C2000F06D
:100AB00087FFF0BD2DE9FF4F85B081468A460020B3
:100AC000039083460798A0EB09050898A0EB0A0657
:100AD000CDF80890CDF804A0002D01DD012705E038
:100AE0000DB9002702E04FF0FF376D42002E02DD06
:100AF0004FF0010806E016B94FF0000802E04FF091
:100B0000FF387642B54201DD2C4600E03446002035
:100B100004901EE0019A91B2029A90B2129A00F0EB
:100B20001FF8039828440390B3440398A04205DDBE
:100B30000398001B0390029838440290A34504DDFB
:100B4000ABEB040B0198404401900498401C80B228
:100B50000490611C04988842DCDB09B0BDE8F08F8A
:100B600070B504460D4616462B46224629462046B9
:100B7000FFF785FF304600F009FF70BD2DE9F04713
:100B800006460F4614461D46DDF820A0681E83B2B7
:100B9000601E82B239463046FFF771FFB8460EE05C
:100BA000B14606E0504600F0F1FE09F101001FFADF
:100BB00080F9A145F6DB08F101001FFA80F8A8458D
:100BC000EEDBBDE8F087000008B501210D2000F044
:100BD0007BFFFF20ADF8000001211248FFF7F8FE6F
:100BE00010208DF8030003208DF8020069460E489E
:100BF000FFF763FEFF210C48FFF73DFF4FF4FC7049
:100C0000ADF8000010208DF8030003208DF80200DD
:100C100069460648FFF751FE4FF4FC710348FFF7A1
:100C20002AFF08BD0002300000080140000C01400E
:100C300010B5FFF7C9FF0820FE490860642001F0E5
:100C4000B1F90820FB49091F0860642001F0AAF9E6
:100C50004FF48070F749091F0860642001F0A2F981
:100C6000EF2000F0ADFEEB2000F0AAFE142000F013
:100C70009BFEFE2000F0A4FEEF2000F0A1FEEB2082
:100C800000F09EFE142000F08FFE842000F098FEFD
:100C9000402000F089FE852000F092FEFF2000F049
:100CA00083FE862000F08CFEFF2000F07DFE872072
:100CB00000F086FEFF2000F077FE882000F080FE26
:100CC0000A2000F071FE892000F07AFE212000F059
:100CD0006BFE8A2000F074FE002000F065FE8B2081
:100CE00000F06EFE802000F05FFE8C2000F068FEB9
:100CF000012000F059FE8D2000F062FE012000F07E
:100D000053FE8E2000F05CFEFF2000F04DFE8F2091
:100D100000F056FEFF2000F047FEB62000F050FE27
:100D2000002000F041FE202000F03EFE362000F0C2
:100D300047FE082000F038FE3A2000F041FE052072
:100D400000F032FE902000F03BFE082000F02CFE68
:100D5000082000F029FE082000F026FE082000F000
:100D600023FEBD2000F02CFE062000F01DFEBC205E
:100D700000F026FE002000F017FEFF2000F020FE0D
:100D8000602000F011FE012000F00EFE042000F0B3
:100D90000BFEC32000F014FE132000F005FEC4205B
:100DA00000F00EFE132000F0FFFDC92000F008FE49
:100DB000222000F0F9FDBE2000F002FE112000F01C
:100DC000F3FDE12000F0FCFD102000F0EDFD0E2011
:100DD00000F0EAFDDF2000F0F3FD212000F0E4FD4B
:100DE0000C2000F0E1FD022000F0DEFDF02000F01C
:100DF000E7FD452000F0D8FD092000F0D5FD0820D2
:100E000000F0D2FD082000F0CFFD262000F0CCFD40
:100E10002A2000F0C9FDF12000F0D2FD432000F0AF
:100E2000C3FD702000F0C0FD722000F0BDFD362033
:100E300000F0BAFD372000F0B7FD6F2000F0B4FDE0
:100E4000F22000F0BDFD452000F0AEFD092000F0CD
:100E5000ABFD082000F0A8FD082000F0A5FD26202D
:100E600000F0A2FD2A2000F09FFDF32000F0A8FD75
:100E7000432000F099FD702000F096FD722000F0F4
:100E800093FD362000F090FD372000F08DFD6F209F
:100E900000F08AFDED2000F093FD1B2000F084FDA2
:100EA0000B2000F081FDAE2000F08AFD772000F0DD
:100EB0007BFDCD2000F084FD632000F075FD7020E7
:100EC00000F07EFD072000F06FFD072000F06CFDB4
:100ED000042000F069FD0E2000F066FD0F2000F0F8
:100EE00063FD092000F060FD072000F05DFD082093
:100EF00000F05AFD032000F057FDE82000F060FDEF
:100F0000342000F051FD622000F05AFD182000F05E
:100F10004BFD0D2000F048FD712000F045FDED2057
:100F200000F042FD702000F03FFD702000F03CFD1D
:100F3000182000F039FD0F2000F036FD712000F080
:100F400033FDEF2000F030FD702000F02DFD70200B
:100F500000F02AFD632000F033FD182000F024FD8E
:100F6000112000F021FD712000F01EFDF12000F0A5
:100F70001BFD702000F018FD702000F015FD1820FA
:100F800000F012FD132000F00FFD712000F00CFDA9
:100F9000F32000F009FD702000F006FD702000F045
:100FA00003FD642000F00CFD282000F0FDFC29204A
:100FB00000F0FAFCF12000F0F7FC012000F0F4FC56
:100FC000F12000F0F1FC002000F0EEFC072000F022
:100FD000EBFC662000F0F4FC3C2000F0E5FC002077
:100FE00000F0E2FCCD2000F0DFFC672000F0DCFC2C
:100FF000452000F0D9FC452000F0D6FC102000F080
:10100000D3FC002000F0D0FC002000F0CDFC00203C
:1010100000F0CAFC672000F0D3FC002000F0C4FC04
:101020003C2000F0C1FC002000F0BEFC002000F0DD
:10103000BBFC01E0140C0140002000F0B5FC0120D5
:1010400000F0B2FC542000F0AFFC102000F0ACFC2B
:10105000322000F0A9FC982000F0A6FC742000F0DB
:10106000AFFC102000F0A0FC852000F09DFC80204B
:1010700000F09AFC002000F097FC002000F094FCA7
:101080004E2000F091FC002000F08EFC982000F033
:1010900097FC3E2000F088FC072000F085FC3520FE
:1010A00000F08EFC212000F08BFC112000F088FC69
:1010B000782000F077FF292000F082FC142000F057
:1010C00071FF10BD2DE9FF5F80468A4617469B469B
:1010D0000F9D00200290CDF80080284605EBD071CE
:1010E000C1F347042046E21704EB5272D2102146A6
:1010F000E31704EB5373DB10A4EBC3030BB1012321
:1011000000E000231A446A4392B20192A7F1200042
:10111000C7B20AEB0500401E83B208EB0400401E74
:1011200082B251464046FFF7AAFC002669E00C2D2A
:1011300007D107EB4700354901EB8000805D039044
:101140001BE0102D05D1324800EB0710805D0390A5
:1011500013E0182D07D107EB47002E4901EB0010D3
:10116000805D039009E0202D05D12B4800EB87100E
:10117000805D039001E0BDE8FF9F4FF000093AE079
:101180001098C8B9012000FA09F00399084018B175
:10119000584600F0FBFB02E00E9800F0F7FB0298C7
:1011A000401CC0B20290029890FBF4F104FB1100C5
:1011B000E8B90020029021E0012000FA09F003992B
:1011C000084020B15A4651464046FFF7C9FC08F195
:1011D00001001FFA80F80098A8EB0000A04206D199
:1011E000DDF800800AF101001FFA80FA06E009F13B
:1011F000010000F0FF09B9F1080FC1DB00BF701C4E
:1012000086B20198864292DB00BFB4E72CF7010852
:10121000A0FB010890010208601302082DE9FE4FAF
:101220008046894617469A46DDE90D460C9D36E014
:101230000C2C09D153463A4649464046CDE9014671
:10124000009500F031F825E0102C09D153463A46BC
:1012500049464046CDE90146009500F0C9F819E03D
:10126000182C09D153463A4649464046CDE9014635
:10127000009500F059F90DE0202C09D153463A466B
:1012800049464046CDE90146009500F0F1F901E0FC
:10129000BDE8FE8FBF1C08EB04001FFA80F8387809
:1012A0000028C5D100BFF3E72DE9FF5F0646894658
:1012B00092469B460F9C0020039000962046E21722
:1012C00004EB5272D2102146E31704EB5373DB1088
:1012D000A4EBC3030BB1012300E000231A446243D3
:1012E00092B2019205200290002579E005EB85007D
:1012F00000EBC5003D4911F810009AF80010884233
:101300006BD105EB850000EBC500384901EB4000CF
:1013100040789AF8011088425FD109EB0400401E22
:1013200083B23019401E82B249463046FFF7A7FB10
:1013300000274FE04FF0000846E0109808BB05EB8F
:10134000850000EBC500294901EB4000801CC05D11
:10135000012101FA08F1084018B1584600F016FBC7
:1013600002E00E9800F012FB0398401CC0B20390FC
:10137000039890FBF4F104FB110008BB00200390DC
:1013800025E005EB850000EBC500184901EB4000A6
:10139000801CC05D012101FA08F1084020B15A46C5
:1013A00049463046FFF7DCFB701C86B20098301AC5
:1013B000A04205D1009E09F101001FFA80F906E064
:1013C00008F1010000F0FF08B8F1080FB5DB00BF1D
:1013D000781CC7B201988742ACDB00BF681C85B29D
:1013E0000298854282DBBDE8FF9F0000202B0208A7
:1013F0002DE9FF5F0646894692469B460F9C0020DA
:10140000039000962046E21704EB5272D210214658
:10141000E31704EB5373DB10A4EBC3030BB10123FD
:1014200000E000231A44624392B201920520029028
:10143000002571E005EB05103A4911F810009AF803
:101440000010884265D105EB0510364901EB4000DC
:1014500040789AF8011088425BD109EB0400401EE5
:1014600083B23019401E82B249463046FFF707FB6F
:1014700000274BE04FF0000842E01098F8B905EB68
:101480000510284901EB4000801CC05D012101FAD4
:1014900008F1084018B1584600F078FA02E00E98BA
:1014A00000F074FA0398401CC0B20390039890FBBC
:1014B000F4F104FB1100F8B90020039023E005EBE0
:1014C0000510184901EB4000801CC05D012101FAA4
:1014D00008F1084020B15A4649463046FFF740FB24
:1014E000701C86B20098301AA04205D1009E09F106
:1014F00001001FFA80F906E008F1010000F0FF0882
:10150000B8F1080FB9DB00BF781CC7B20198874259
:10151000B0DB00BF681C85B2029885428ADBBDE85B
:10152000FF9F0000A22B02082DE9FF5F06468946B7
:1015300092469B460F9C0020039000962046E2179F
:1015400004EB5272D2102146E31704EB5373DB1005
:10155000A4EBC3030BB1012300E000231A44624350
:1015600092B2019205200290002579E005EB8500FA
:1015700000EB45103D4911F810009AF80010884220
:101580006BD105EB850000EB4510384901EB4000BD
:1015900040789AF8011088425FD109EB0400401EA0
:1015A00083B23019401E82B249463046FFF767FACF
:1015B00000274FE04FF0000846E0109808BB05EB0D
:1015C000850000EB4510294901EB4000801CC05DFF
:1015D000012101FA08F1084018B1584600F0D6F987
:1015E00002E00E9800F0D2F90398401CC0B20390BC
:1015F000039890FBF4F104FB110008BB002003905A
:1016000025E005EB850000EB4510184901EB400093
:10161000801CC05D012101FA08F1084020B15A4642
:1016200049463046FFF79CFA701C86B20098301A83
:10163000A04205D1009E09F101001FFA80F906E0E1
:1016400008F1010000F0FF08B8F1080FB5DB00BF9A
:10165000781CC7B201988742ACDB00BF681C85B21A
:101660000298854282DBBDE8FF9F00004C2C0208F7
:101670002DE9FF5F0646894692469B460F9C002057
:10168000039000962046E21704EB5272D2102146D6
:10169000E31704EB5373DB10A4EBC3030BB101237B
:1016A00000E000231A44624392B2019205200290A6
:1016B000002571E005EB85103A4911F810009AF801
:1016C0000010884265D105EB8510364901EB4000DA
:1016D00040789AF8011088425BD109EB0400401E63
:1016E00083B23019401E82B249463046FFF7C7F92F
:1016F00000274BE04FF0000842E01098F8B905EBE6
:101700008510284901EB4000801CC05D012101FAD1
:1017100008F1084018B1584600F038F902E00E9878
:1017200000F034F90398401CC0B20390039890FB7A
:10173000F4F104FB1100F8B90020039023E005EB5D
:101740008510184901EB4000801CC05D012101FAA1
:1017500008F1084020B15A4649463046FFF700FAE2
:10176000701C86B20098301AA04205D1009E09F183
:1017700001001FFA80F906E008F1010000F0FF08FF
:10178000B8F1080FB9DB00BF781CC7B201988742D7
:10179000B0DB00BF681C85B2029885428ADBBDE8D9
:1017A000FF9F0000BE2D02082DE9FF4F85B00746C0
:1017B00090461C46DDE91396304606EBD071C1F326
:1017C000470B2149404600F0A5FF039000F082FF3F
:1017D00080B20490002531E0601B401EC1B20A2097
:1017E00000F0D8FC0499B1FBF0F00A21B0FBF1F253
:1017F00001FB120AA01EA84210D10020A11E01FB6D
:101800000B71CDE90096029088B22E22129B0699A8
:10181000FFF758FC681CC5B2601CC4B200200AF176
:101820003001CAB205FB0B71CDE90096029088B277
:10183000129B0699FFF746FC681CC5B2A542CBDB9C
:1018400009B0BDE8F08F00000000C8422DE9FF4F4D
:1018500085B0074691461D46DDE913A60020049099
:10186000304606EBD071C1F3470B002434E0281B4F
:10187000401EC1B20A2000F08DFCB9FBF0F00A2135
:10188000B0FBF1F201FB12080498A0B9681EA04257
:1018900011DDB8F1000F0CD1002004FB0B71CDE974
:1018A00000A6029088B22022129B0699FFF70AFC3C
:1018B00010E001200490002008F13001CAB204FBBE
:1018C0000B71CDE900A6029088B2129B0699FFF732
:1018D000F9FB00BF601CC4B2AC42C8DB09B0BDE874
:1018E000F08F2DE9F05F0746884615461E46DDF865
:1018F0002890002408EB0600401E83B27819401E91
:1019000082B241463846FFF7BAF8A24618E04FF0D7
:10191000000B0FE019F8140000F046F8012101EB6C
:10192000440119F8010000F03FF8641C0BF10100BC
:101930001FFA80FBB345EDDB0AF101001FFA80FAC4
:10194000AA45E4DBBDE8F09F2DE9FE4F06460F46B1
:1019500014469846DDE90D5ADDF8309010E0CDE9E7
:10196000015ACDF800902278434639463046FFF7B9
:10197000A9FB284605EBD07106EB61018EB2641C11
:1019800020780028EBD1BDE8FE8F000000B50346AB
:10199000202004490860181200F022F8D8B200F0A4
:1019A0001FF800BD100C014000B50346202003497C
:1019B0000860184600F014F800BD0000100C01404B
:1019C00000B50346202005490860184600F008F8D5
:1019D00020200249091F086000BD0000140C0140CE
:1019E0001021054A11600549086040211160121F4D
:1019F0001160102111607047140C01400C08014067
:101A000008B50121482000F05FF82020ADF8000063
:101A100010208DF8030003208DF802006946094864
:101A2000FEF74BFF20210748FFF725F82020ADF8EF
:101A3000000069460448FEF740FF20210248FFF7F6
:101A40001AF808BD000C01400018014000BFFEE775
:101A50007047000070B5002100230F22C47804B342
:101A6000154C246804F4E064C4F5E064210AC1F173
:101A70000403CA40447804FA03F1847814402143F3
:101A800009010E4C0678A155047804F01F050124C5
:101A9000AC4005786D11AD0005F1E025C5F80041B9
:101AA00009E0047804F01F050124AC40044D0678D9
:101AB000761145F8264070BD0CED00E000E400E032
:101AC00080E100E07047000029B1064A92690243B4
:101AD000044B9A6104E0034A92698243014B9A6184
:101AE000704700000010024030B5002100220024A1
:101AF00000232D4D6D6805F00C0121B1042905D09E
:101B0000082923D105E0294D056022E0274D056015
:101B10001FE0254D6D6805F47012234D6D6805F4C6
:101B20008034022505EB92421CB9214D55430560D6
:101B30000BE01D4D6D6805F400351DB11C4D55437E
:101B4000056002E0194D5543056002E0174D056040
:101B500000BF00BF144D6D6805F0F0010909154D77
:101B60006B5C0568DD4045600F4D6D6805F4E06114
:101B7000090A104D6B5C4568DD4085600A4D6D6853
:101B800005F46051C90A0B4D6B5C4568DD40C560CA
:101B9000054D6D6805F44041890B074D6B5CC568C8
:101BA000B5FBF3F5056130BD0010024000127A006C
:101BB00000093D002900002039000020704710B5C1
:101BC00000F002F810BD00000CB50020019000905C
:101BD0003348006840F480303149086000BF304825
:101BE000006800F4003000900198401C01900098BB
:101BF00018B90198B0F5A06FF1D12948006800F438
:101C0000003010B10120009001E000200090009809
:101C1000012843D12348006840F0100021490860A2
:101C20000846006820F0030008600846006840F09D
:101C3000020008601A484068194948600846406830
:101C400048600846406840F4806048600846406844
:101C500020F47C1048600846406840F4E810486072
:101C60000846006840F08070086000BF0C480068BB
:101C700000F000700028F9D00948406820F0030007
:101C8000074948600846406840F00200486000BFCD
:101C90000348406800F00C000828F9D10CBD000092
:101CA0000010024000200240042808D14FF0E0213B
:101CB000096941F004014FF0E022116107E04FF0A3
:101CC000E021096921F004014FF0E0221161704721
:101CD0007047000010B51348006840F0010011493A
:101CE000086008464068104908400E4948600846A8
:101CF00000680E4908400B4908600846006820F457
:101D0000802008600846406820F4FE0048604FF4D8
:101D10001F008860FFF753FF4FF000600449086020
:101D200010BD0000001002400000FFF8FFFFF6FEAB
:101D300008ED00E010B540F225511D4800F04AF8CA
:101D400010B31B4800F002F9C4B21A48008800F42E
:101D50000040C8B91748008800F4804060B10A2CE0
:101D600003D000201349088020E01248008840F486
:101D700000401049088019E00D2C06D10D4800885C
:101D800040F480400B49088010E00A480088C0F306
:101D90000D0009490C5407480088401C054908807B
:101DA00008460088C72801DD0020088010BD00001B
:101DB00000380140480000204C00002021B18289F9
:101DC00042F40052828104E082894DF6FF731A408A
:101DD0008281704770B50246002400230025002050
:101DE00040F66A16B14200D100BFC1F3421501F0BE
:101DF0001F03012606FA03F3012D02D19689334011
:101E000006E0022D02D1168A334001E0968A334063
:101E10000C12012606FA04F41688344013B10CB1F2
:101E2000012000E0002070BDF0B50346002400262C
:101E30000025002040F66A17B94200D100BF1846BD
:101E4000C1F3421401F01F06012707FA06F5012C21
:101E500001D10C3004E0022C01D1103000E014302C
:101E60001AB107682F43076002E00768AF430760B5
:101E7000F0BD00002DE9F04786B005460E4600246F
:101E8000A24600BFA1460027B08900B100BF2F467F
:101E90002C8A4CF6FF700440F08804432C82AC89F5
:101EA0004EF6F3100440B088318908437189084325
:101EB0000443AC81AC8A4FF6FF400440B089044330
:101EC000AC8201A8FFF710FE1F48874202D1DDF85F
:101ED00010A001E0DDF80CA0A88900F4004040B19A
:101EE0000AEBCA0000EB0A1031684900B0FBF1F8B8
:101EF00007E00AEBCA0000EB0A1031688900B0FB6A
:101F0000F1F86420B8FBF0F004012009642101FB22
:101F10001089A88900F4004040B1322000EBC900CC
:101F2000B0FBF1F000F00700044308E0322000EBC2
:101F300009106421B0FBF1F000F00F0004432C8184
:101F400006B0BDE8F08700000038014001468888EF
:101F5000C0F30800704700BFFEE700BF70470000F5
:101F600010B56FF00400FFF79FFE0A4800680A49A9
:101F7000B0FBF1F0094908700846007800EB400119
:101F8000C1EBC0104FF6FF7101EAC00004490880A0
:101F900010BD00000000002000127A003E0000206A
:101FA000400000200146114A12884A434FF0E023C6
:101FB0005A6100229A611A46126942F001021A61BE
:101FC00000BF4FF0E022106900F001021AB100F4E6
:101FD0008032002AF5D04FF0E022126922F001028F
:101FE0004FF0E0231A6100229A6170474000002000
:101FF0000146114A12784A434FF0E0235A61002209
:102000009A611A46126942F001021A6100BF4FF04C
:10201000E022106900F001021AB100F48032002AB7
:10202000F5D04FF0E022126922F001024FF0E023D8
:102030001A6100229A6170473E0000200EB54FF0F1
:10204000000AFFF78DFF4FF4E13000F0AFF8FFF723
:10205000D7FCFEF7EDFD4FF6FF70F0231A46002186
:1020600000900846FEF78AFDFEF70AF973E00020AB
:1020700020214FF6FF724FF47843CDE90021029002
:1020800035A228211E20FFF7C9F8002010214FF6A5
:10209000FF724FF47843CDE90021029031A2502124
:1020A0002020FFF751FC10204FF6FF714FF47842CB
:1020B0000323CDE900210290F02250218620FFF772
:1020C000C5FB002010214FF6FF724FF47843CDE995
:1020D0000021029027A264212020FFF735FC102068
:1020E0004FF6FF714FF478420423CDE900210290AE
:1020F00052466421A020FFF757FB504600F0BEFA7D
:102100000746214A214B00F0D3F8054600F09EF81F
:1021100082464FF0000917E000240FE01C4809EB4D
:102120008902782303EBC20104EB84020090D00003
:1021300028231A46FFF7D5FB601CC4B2062CEDDB42
:1021400009F1010000F0FF09B9F1030FE4DBFEF72C
:1021500097F8FEF7D1F98AE7D6D0BEB0D4B0B5E78C
:10216000D7D300004C43445F4469616D6574657268
:102170003A000000496E637265617365696E67209D
:102180004E756E3A00000000295C8FC2F528BC3FF6
:10219000AC28000810B50246012000E050430B1E99
:1021A000A1F10104E1B2F9D110BD000010B586B073
:1021B0000446012144F20500FFF786FC4FF400704D
:1021C000ADF8140003208DF8160018208DF81700C4
:1021D00005A91C48FEF771FB4FF48060ADF81400B0
:1021E00004208DF8170005A91648FEF766FB252088
:1021F0008DF8000003208DF801008DF80200012009
:102200008DF803006846FFF725FC01940020ADF827
:102210000800ADF80A00ADF80C00ADF810000C2075
:10222000ADF80E0001A90848FFF724FE012240F294
:1022300025510548FFF7F8FD01210348FFF7BEFDD2
:1022400006B010BD000801400038014021F00042F6
:10225000A2F16052B2F5801F01F0004328BFD2F115
:102260007F6C0BD95FEA001C43EAC20242EB50705C
:1022700018BF704728BF20F001007047B2F5801FDB
:10228000BCBF184670474FEA410C1CF5001F02D234
:10229000084600F006BB70B500F0B2F800000089F7
:1022A000FFF7F6BF4FF00040A0F580007047000038
:1022B00010B591EA030F48BF83F0004300F1FC80A2
:1022C000841A71EB030C05D2121943EB0C03001BAB
:1022D00061EB0C01DFF824E14FEA1154A4EB135C2D
:1022E0001EEA430F18BF9EEA445F73D023EA0E0331
:1022F000DCF1200E21EA045143F4801332D322FA98
:102300000CFE10EB0E0023FA0CFE41EB0E01CCF19B
:10231000200E03FA0EFE10EB0E0051F10001B1F594
:10232000801FCCF1200E32D201EB045112FA0EF2D2
:10233000BDE8104058BF7047401C38BF5FEA4202FA
:1023400018BF7047002814BF20F0010041F10001C0
:102350004FEA410313F5001F38BF7047A1F1C04198
:1023600000F09CB8012A43EB0302ACF1200CDCF135
:102370001F0E32BF4FF0000E23FA0CF310EB0300D8
:1023800041EB0451B4EB115FD0D0A1EB045101F546
:10239000801149085FEA300001EB04510ED350F17F
:1023A000000038BF12FA0EFE08D1BDE81040C9E7A0
:1023B000401C38BF5FEA4202CAD1C3E7BDE8104003
:1023C0004FEA410313F5001F38BF7047A1F1C04128
:1023D00000F064B89EEA445F08D011EA5E0FBDE8E1
:1023E000104004BF01F0004100207047BDE81040DC
:1023F00070B500F005F800BF64FBBE3E0000E0FFD2
:102400000EF1020E2EF0030E5EF8046B364205D478
:10241000012A43EB030515F5001F12D8012841EBF3
:10242000010C1CF5001F0CD80ED14FEAD17C15F51C
:10243000001F0CEB4C0C0CF1020C08BF4CEBD37CD6
:1024400004E04FF0080C01E04FEAD37C0CEB4C05A4
:1024500026FA05F606F00706B6F1040C06D20EEBD6
:10246000860CBDE870404CF0010C6047DFE80CF0D2
:10247000090B02024FF000414FF00000A1F50021CE
:1024800070BD19461046012851EB010418BFD4F560
:10249000001484BF002001F0004170BD0808A0F5C1
:1024A00000114FEA3101704710B591EA030F48BFA0
:1024B00083F000433FF504AF841A71EB030C07D29D
:1024C00012198CF0004C43EB0C03001B61EB0C0168
:1024D000DFF8A4E14FEA1154A4EB135C1EEA430FAA
:1024E00018BF9EEA445F00F0B08023EA6E035242B8
:1024F00021EA0451C3EB6E0338BF5B1EDCF1200EF2
:1025000025D322FA0CFE10EB0E0043FA0CFE41EB31
:102510000E01CCF1200E03FA0EFE10EB0E0051F16D
:102520000001CCF1200E29D412FA0EF201EB045175
:10253000BDE8104058BF7047401C1CBFB2F1004FAF
:10254000704700280CBF491C20F00100704712EBB7
:10255000020E43EB030218BF4FF0010E4EEA420297
:10256000ACF1200CDCF11E0E54D943FA0CFE10EB3A
:102570000E0051F1FF31CCF11E0ED5D50EF1010E3A
:1025800012FA0EFE404141EB010101EB445C5FEAAF
:102590005C5C10D910EBDE7001EB045138BFBEF16A
:1025A000004FBDE8104018BF704700280CBF491C01
:1025B00020F00100704730D24FEAD42C11F5001101
:1025C00024F400641BD0B1FA81F20B3AA41AA41EC1
:1025D000D2F12003914030FA03F31943904001EB0C
:1025E000CC71002C01EB0451BDE81040A8BF70472E
:1025F00001F1C0414FF0000001F000417047B0FA16
:1026000080F310FA03F100D110BDE41A173C48051D
:10261000C90AE4E701EB045110BD491001EB045174
:10262000BDE810404FEA300002E04FF00001704773
:102630004A0008BF0042F8D0B2F5001F28BF70471B
:1026400001F000414FF0000070479EEA445F07D060
:1026500011EA5E0FBDE8104004BF00210020704762
:10266000BDE8104070B5FFF7CBFE00BF40DFF63E7F
:1026700083F00041104670470000E0FF43004FEA3E
:10268000D30C4FEA3C0C43401FBF40070CF1605194
:1026900013F0FE4F70471CF0006F03D100200CF0C8
:1026A000004170470CF0004343EA507010B540EA17
:1026B000CC0000F0B0F800BF000000924FEA00012B
:1026C000FFF7ECBE4FF000414FF00000A1F50021F4
:1026D00070470000C10DD1F19E0206DB4FEA0023D6
:1026E00043F0004323FA02F07047004207D54FEA57
:1026F0004001B1F1FE4F02D24FF00000704710B51B
:1027000000F089F849922480002070476FEA200089
:10271000704700004FF47F0C1CEAD0121EBF1CEA69
:10272000D11392EA0C0F93EA0C0F00F0478090EA65
:10273000010F48BF42F480724FF0004C4CEA002079
:102740004CEA012102EB0302A0FB0113A2F50002F7
:10275000002918BF43F001035B0028BF4FEA330391
:1027600042EB22425FEA132C4CEBC2502EBFBCEB73
:10277000436FB2F57C0F70474FEA036CBCF1004F1A
:1027800008BF20F00100B2F57C0F38BF70470BD5B1
:1027900082F0FF0212F5803FC8BF704700F1C040D1
:1027A000D8BF00F00040704700F5000C5FEA4C0C09
:1027B00048BF7047B0F1C04000F073B890EA010F15
:1027C0000CEAD11348BF42F48072624538BF6345BA
:1027D00004D280EA010000F00040704710B500F01C
:1027E0001AF800BF8900013E00F007B800F009B8F0
:1027F0005FEA410C5FEA1C6C08D080EA010000F03F
:1028000050B85FEA400C5FEA1C6CF6D14FF0004014
:10281000A0F5800070470EF1020E2EF0030E5EF858
:10282000044B244204D44FEA4102B2F17F4F11D845
:102830004FEA4003B3F17F4F0CD80ED14FEAD07C62
:10284000B2F17F4F0CEB4C0C0CF1020C08BF4CEBBF
:10285000D17C04E04FF0080C01E04FEAD17C0CEB96
:102860004C0324FA03F404F00704B4F1040C06D278
:102870000EEB840CBDE810404CF0010C6047DFE823
:102880000CF0070802024FF00040A0F5800010BDD8
:102890000846420018BFD2F1807288BF00F00040A5
:1028A00010BDFF2141EAD050C0057047FFFFFFFF78
:1028B000FFFFFFFFFFFFFFFFFFFFFFFFFFFFFFFF28
:1028C000FFFFFFFFFFFFFFFFFFFFF7BEFFFFFFDE82
:1028D000C6388C926B8E6B6E7C10AD96E73CFFFF1A
:1028E000FFFFFFFFFFFFFFFFFFFFFFFFFFFFFFFFF8
:1028F000FFFFFFFFFFFFFFFFFFFFFFFFFFFFFFFFE8
:10290000FFFFFFFFFFFFFFFFFFFFFFFFFFFFFFFFD7
:10291000FFFFFFFFFFFFFFFFFFFFEF5D9D15634F11
:10292000426C320A298819461925214531E86B8EF7
:10293000C638FFFFFFFFFFFFFFFFFFFFFFFFFFFFA7
:10294000FFFFFFFFFFFFFFFFFFFFFFFFFFFFFFFF97
:10295000FFFFFFFFFFFFFFFFFFFFFFFFFFFFFFFF87
:10296000FFFFFFFFFFFFFFFFA53653104B10535132
:102970004B0F3A6C31E92167192510E408A3006276
:10298000088352CBD69AFFFFFFFFFFFFFFFFFFFF39
:10299000FFFFFFFFFFFFFFFFFFFFFFFFFFFFFFFF47
:1029A000FFFFFFFFFFFFFFFFFFFFFFFFFFFFFFFF37
:1029B000FFFFFFFFE73C637063B37CB863F543112F
:1029C000324D29EA21881926190519051104110427
:1029D00010E4008308A38C72FFFFFFFFFFFFFFFFDF
:1029E000FFFFFFFFFFFFFFFFFFFFFFFFFFFFFFFFF7
:1029F000FFFFFFFFFFFFFFFFFFFFFFFFFFFFFFFFE7
:102A0000FFFFDEDB3A4B42F06C354B5432B12A2EDD
:102A100021EB21A9196719051104110411041104EE
:102A20001104190510E4004273AFFFFFFFFFFFFF21
:102A3000FFFFFFFFFFFFFFFFFFFFFFFFFFFFFFFFA6
:102A4000FFFFFFFFFFFFFFFFFFFFFFFFFFFFFFFF96
:102A5000EF5D3209324C4B10328F2A4F2A2E19CC9F
:102A600019892189194719051104110410C410C4CA
:102A700011041104110410E400428431FFFFFFFF30
:102A8000FFFFFFFFFFFFFFFFFFFFFFFFFFFFFFFF56
:102A9000FFFFFFFFFFFFFFFFFFFFFFFFFFFFFFFF46
:102AA00052EC1947324C2A0B21EC21EC220C5B91A1
:102AB0004AEE11061926190410E410E429A721662C
:102AC00008A319051104110410E40082BDF7FFFFEB
:102AD000FFFFFFFFFFFFFFFFFFFFFFFFFFFFFFFF06
:102AE000FFFFFFFFFFFFFFFFFFFFFFFFFFFFA5351A
:102AF000088321882188218921AA218A426B8C712F
:102B0000FFFF8C720883110408C44229DEFBEF5DCD
:102B10005AEC0883110411041104088331E8FFDF23
:102B2000FFFFFFFFFFFFFFFFFFFFFFFFFFFFFFFFB5
:102B3000FFFFFFFFFFFFFFFFFFFFFFFFF7BE31C7F4
:102B400010C4192519261947194729A8528A4A2855
:102B5000AD55FFFF31E808A319056B4D6B4DFFFF25
:102B6000EF7D214510C41104110411040062AD76FB
:102B7000FFFFFFFFFFFFFFFFFFFFFFFFFFFFFFFF65
:102B8000FFFFFFFFFFFFFFFFFFFFFFFFB5960062A4
:102B9000110419041105190508C44A8BB5B6EF5D77
:102BA000BDF7FFFF6B8E006242295AAA4208FFFF61
:102BB000FFFF52CC088311041104110408A352AD85
:102BC000FFFFFFFFFFFFFFFFFFFFFFFFFFFFFFFF15
:102BD000FFFFE71CFFFFFFFFFFFFFFFF634E0062E9
:102BE00011041104110410E40062638EFFFFFFFF63
:102BF000FFFFFFFF73CF00019CF3632CB596FFFF2F
:102C0000FFFF5B2D008311041104110410E4216700
:102C1000EF3DFFFFFFFFFFFFFFFFFFFFBDF8B5B771
:102C2000EF9E52CB94B3FFFFFFFFFFDF31E808A315
:102C3000110411041104110408A34249F7FFF7FF1E
:102C4000FFFFFFFF4A6A00018472FFFFFFFFF7FFEB
:102C5000EFDF3A0908A3110411041104110411054E
:102C6000BE18FFFFFFFFFFFFFFFFFFFF7BF00062CB
:102C700031E831C70041A535FFFFEF5D214610C4A3
:102C8000110411041104110410E408A39D76F7FF48
:102C9000FFFFADB708A308A331C7E79EF7FFF7FF13
:102CA000A57608A310E411041104110411051105FF
:102CB000A535FFFFFFFFFFFFFFFFFFFFDEDB29A7BB
:102CC000008310C410C410C4E71CEF9E110510E46B
:102CD0001104110411041104190408C410E56BD186
:102CE0006BD108C5006408A50043322B9D7784B3DF
:102CF000192510C411041104110411041925092601
:102D00009D35FFFFFFFFFFFFFFFFFFFFFFFF73AFDB
:102D100000621904190500825B0D9B8E106211057B
:102D200011041104190410E40085110539C45A81F5
:102D30007B409C22AC43A4039B837282498218C2CD
:102D400000A400C510E419041104190519471167FE
:102D50005AECFFBEFFFFFFFFFFFFFFFFFFDFDEDBE1
:102D600010C410E41104110518A4C001888300E404
:102D70001905190408C521448343D523FE42FEE406
:102D8000FF27FF07FEA4FE64FE03FDA3FCE2EC4266
:102D9000B383622410E508C41904192619A82187F1
:102DA0009000BCD3FFFFFFFFFFFFFFFFFFDFFFFF30
:102DB0007C100042190511052883D001F84448A36E
:102DC00000E408C55A44ED02FDE2FE02FE66FF740F
:102DD000FFB8FF73F6E7F6A6F645F5A4FCC3FC6260
:102DE000FCC2FCC2CBE349C411061988018790A438
:102DF000F8019AECFFFFFFFFFFFFFFFFFFFFFFFF60
:102E0000F7BE31E8008309054082C001F823F08550
:102E100048A300A45A44FD02CC23DCC2FE04FE28D1
:102E2000F648F646F624F5E4FD64FCE3FC62FCC2D9
:102E3000E402DC02FCE27AA40148016778C4F824C9
:102E4000F802B084E77DFFFFFFFFFFFFFFFFFFFFFA
:102E5000FFFFDEDB192500A338C4E002D822F844C6
:102E6000F8A678A400632143728339839B82F521FD
:102E7000FD61FD22FCE2FCA2FC42FC42FC42AB22D2
:102E8000418392C352040126192598A4F844F823DB
:102E9000F802D0A4EF9EFFFFFFFFFFFFFFFFFFFF41
:102EA000FFFFFFFFD69A298700A5B843F822E02349
:102EB000F865F8E8C9074883004200A30084296345
:102EC0007AA2B362CBA2D362BB028A82398300A406
:102ED00000E500E508E560C4D864F844F824F82368
:102EE000F8028883C6DBFFFFFFFFFFFFFFFFFFFF46
:102EF000FFFFFFFFFFFFE73D5B503108E823F8438A
:102F0000F044F865F909F9ABD189890648A318425C
:102F1000000200420061008200620062008320A380
:102F200050C488A5D885F865F844F844F823F823F8
:102F3000D003108229C7EF5DFFFFFFFFFFFFFFFFF8
:102F4000FFFFFFFFFFFFFFFFFFFF326C38A5D80236
:102F5000F823F865F866F8A7F94AFA0CFA4DEA4C36
:102F6000D20BB9A9B168A947B127B907D107E8E7DA
:102F7000F8C7F8A7F865F865F844F823F803D00215
:102F800028A3090508C45AECFFFFFFFFFFFFFFFF5E
:102F9000FFFFFFFFFFFFFFFFDEFB190500C441A796
:102FA000C0E6F803F886F8A7F887F886F8C7F92985
:102FB000F98AF9ABF9ABF98BF96AF929F908F8C77D
:102FC000F8A6F886F865F864F823F002B10629251A
:102FD00000E410E4192519259D14FFFFFFFFFFFFF2
:102FE000FFFFFFFFFFFFFFFFAD96006208829535F0
:102FF000CEBAA28BD044F825F887F8A7F8C7F8A76F
:10300000F887F886F886F886F887F8A7F8A7F8A66C
:10301000F885F865F864F024B864930DB6BB63CF07
:103020000883110410E421663A49EF5DFFFFFFFFBA
:10303000FFFFFFFFFFFFFFFF94D3004210E4CEBB72
:10304000FFFFE7BEB576AACCC107E045F845F846D4
:10305000F866F886F886F886F886F865F845F86523
:10306000E865D044A84388019082D73CEFFF95558E
:103070000883110411041905194694B3FFFFFFFFDB
:10308000FFFFFFFFFFFFFFFF94B300412186DF5DDD
:10309000FFFFFFFFFFFFE7DFC67AB4D3B34EC22ABC
:1030A000D168E0E6E8A6E8A5E8A5D8E6C988A906BB
:1030B000A822A802A000C800D800E5F7E7FFADF8F5
:1030C00010C410E4110410E411054A8BFFFFFFFF48
:1030D000FFFFFFFFFFFFFFFFA555004129A7DF5DB1
:1030E000F7FFFFFFFFFFFFFFFFFFFFFFEFFFDF7DAA
:1030F000CEDBCE59CDF8CDD7C5F7CE79BEFBA2AB8E
:10310000F003F845D042E843F000D472DFFFAE3957
:1031100010E410E4110410E411052987FFFFFFFFFC
:10312000FFFFFFFFFFFFFFFFCE5908832146D71C9B
:10313000F7FFFFFFFFFFFFFFFFFFFFFFFFFFFFFFA7
:10314000FFFFFFFFFFFFFFFFFFFFFFFFEFFFBA8B58
:10315000F804F845E062F044F800DB8EDFFFA5F8E4
:1031600010C410E410E4110410E41925FFFFFFFF60
:10317000FFFFFFFFFFFFFFFFF7BE29870883B63978
:10318000F7FFF7DFFFFFFFFFFFFFFFFFFFFFFFFF7F
:10319000FFFFFFFFFFFFFFFFFFFFFFFFE7BEBA4A92
:1031A000F803F845F864F844F800E36ED7FF8CF4B0
:1031B0000883110410E410E410E41905FFFFFFFF79
:1031C000FFFFFFFFFFFFFFFFFFFF73EF00008472B1
:1031D000EFFFEFBEFFDFFFFFFFFFFFFFFFFFFFFF80
:1031E000FFFFFFFFFFFFFFFFFFFFFFFFE7DFBA8BE0
:1031F000F803F845F845F823F800D4D3D7FF5B4E21
:1032000000213A29A555088310C41925FFFFFFFFA7
:10321000FFFFFFFFFFFFFFFFFFFFDEFB08A331E81B
:10322000DF9EE79EEFBFFFFFFFFFFFFFFFFFFFFFF8
:10323000FFFFFFFFFFFFFFFFFFFFFFFFF7FFBC5197
:10324000E002F803F003E043C2ECCF7EBEFC21466F
:10325000002194D3FFFF845100002987FFFFFFFF67
:10326000FFFFFFFFFFFFFFFFFFFFFFFF8451000095
:103270008CF4EFFFE79EEFBFFFDFFFFFFFFFFFFFD5
:10328000FFFFFFFFFFFFFFFFFFFFFFFFFFFFDF3D30
:10329000BD55BC52BC72B5B7C75DDFFF6BF0000017
:1032A0003A09F7BFFFFFFFFF9D14A555FFFFFFFF82
:1032B000FFFFFFFFFFFFFFFFFFFFFFFFFFFF4AAC26
:1032C00008A4BEBBE7DFE77EEFBEF7DFFFDFFFFF4F
:1032D000FFFFFFFFFFFFFFFFFFFFFFFFFFDFF7DF46
:1032E000EFFFDFDFD7BFD79EDFDFA5D8088311262A
:1032F000D6DBFFFFFFFFFFFFFFFFFFFFFFFFFFFF2B
:10330000FFFFFFFFFFFFFFFFFFFFFFFFEE79DC8BFB
:10331000312121A9CF3DDFBFDF7EE79EEFBEEFBFAA
:10332000F7DFF7DFF7DFF7DFF7DFEFBFEFBEE79E8F
:10333000DF7ED75ED75EDFDFB69A19260842A3ED9F
:10334000FFBFFFFFFFFFFFFFFFFFFFFFFFFFFFFFCD
:10335000FFFFFFFFFFFFFFFFFFFFDD74DBC0FE008D
:10336000EE4242022189B67BDFDFD77EDF7EDF7E41
:10337000E79EE79EE79EE79EE79EDF7EDF7ED75DC6
:10338000D75DDF9EE7FFA5F8110718E3C502FD60D2
:10339000D3E6EEDBFFFFFFFFFFFFFFFFFFFFFFFFB7
:1033A000FFFFFFFFFFFFFFFFF79EBA84FCC1FE4255
:1033B000FE82FEA2838121457474C75EDFDFD77E63
:1033C000D75ED75DD75ED75ED75DD75DD75EDF9E10
:1033D000E7FFC73D63F108845242E626FF29FE86D7
:1033E000F3E0C36AFFFFFFFFFFFFFFFFFFFFFFFFE9
:1033F000FFFFFFFFFFFFFFFFDE18D2C1FDA2FE228D
:10340000FE42FE42FE62D4E26A4142497453A63B48
:10341000C73ED7BFD7BFD7BFDFBFD7BFC73EA61AEC
:1034200063F229A74182B422FE62FE83FEAAFF0F47
:10343000FD67BA63EF3CFFFFFFFFFFFFFFFFFFFFEA
:10344000FFFFFFFFFFFFFFFFE69AD280FD21FDC2D5
:10345000F5E2F5C2F582FD82FD62DC619B216A84A2
:103460006AE9632C63AF7411636E632C5A8952044A
:103470007A81CBC2FCE2FD62FD82FDC2FDC2FDE4A9
:10348000FD24CA62E71CFFFFFFFFFFFFFFFFFFFFF6
:10349000FFFFFFFFFFFFFFFFFFFFCCB1D281F3C0B3
:1034A000FCC1FD02FD02FCE2FCC2FCC2FC81FB800F
:1034B000C9C081A4AD35CE599C718121DA00FBA130
:1034C000FC82FCA2FC82FCA2FD02FD22FCE2FC00CC
:1034D000DA60CC90FFFFFFFFFFFFFFFFFFFFFFFF62
:1034E000FFFFFFFFFFFFFFFFFFFFFFFFDE59C40DE0
:1034F000CB06D2E4DB03DB03DAE3D2C3C2A4B30915
:10350000BCD2F79EFFFFFFFFFFFFE6FBB40EBAA69B
:10351000D283E2E3EB02EB22E322DB03D2E4C36AD1
:10352000D5B6FFFFFFFFFFFFFFFFFFFF03380338A4
:1035300003380338033803380338033803380338B3
:103540000358033803580338035803580338033823
:10355000035803580358035803790379037903790F
:10356000037903790379037903790379037903797B
:1035700003790378037903790399039903990399EC
:103580000399039903B9039903B903BA03BA03BAB8
:1035900003BA03BA03BA03BA03BA03BA03BA03BA43
:1035A00003DA03DA03BA03BA03BA03BA03BA03BAF3
:1035B00003BA03BA03BA03DA03DA03DA03FB03FB41
:1035C000041B043B045C0C7C0C9D0C9D0C9D0C9D11
:1035D0000C7C045C043B045C045C043B043B043B47
:1035E000041B041B041B041B041B041B041B041BE3
:1035F000041B041B041B041B041B041B041B041BD3
:10360000041B041B041B03FB03FB03FB03FB03FB67
:10361000041B041B03FB03FB041B041B041B041BF4
:10362000041B041B03FB03FB03FB03FB03FB041B47
:1036300003FB043B045B043B043C0C7D0C1B147C2F
:10364000045B043B0C5C147C0C5C251E251E24FDD5
:10365000149C1C9D24BD2C9C34BD347C2C9D24BD0D
:103660002C9C2C9C347C347C2C7D2C7C349D34BD57
:10367000349D349D349C347C3C7C3C9C3CBC44BCA0
:1036800044BC44BC44BC449C449C449B44BB449BBD
:10369000449B449B447B449B449B447B447B447BB2
:1036A000447B447B447B447B4C7B447B447B449BFA
:1036B000447B3C5A3C5B447B447B3C5B445B445BCB
:1036C000447B447B447B445A445B447B445B549C32
:1036D0005CFD6CFB95BBE75FEF5FE71EBE5DAE5E1A
:1036E0009DDD959C959C8D5C6CFC5CDB5CBB64FB00
:1036F000753C74FB7D1C857E85BF85BF6CFB5C784B
:103700006CB97CF99DDD957C7C998D1B0338033861
:1037100003380338033803380338033803380338D1
:103720000338033803580338035803580338035841
:10373000035803580358037903790379037903790C
:103740000379037903790379037903790379037999
:1037500003790378037903990399039903990399EA
:103760000399039903B903B903B903BA03BA03BAB6
:1037700003BA03BA03BA03BA03BA03BA03BA03BA61
:1037800003BA03BA03BA03BA03BA03BA03BA03BA51
:1037900003BA03BA03BA03BA03BA03DA03DA03FAC1
:1037A00003FB041B041B043B0C5C0C7C0C7C0C7C9E
:1037B000045C043B043B043B043B043B043B043BF0
:1037C000041B041B041B041B041B041B041B041B01
:1037D000041B041B041B041B041B041B041B041BF1
:1037E00003FB03FB03FB03FB03FB03FB03FB03FBE9
:1037F000041B041B041B041B041B041B03FB041BF2
:10380000041B041B03FB03FB03FB03FB03DB03FBA6
:1038100003FB041B041A045B043C03FB143B145B12
:103820000C5C0C7C043B041B0C5C0C5C0C5B0C7C8B
:103830000C5B149C24BD2C9C34BD2C7C2CBD2CBD5D
:103840002C9D2C9C2C7C2C7C2C7C2C9D34BD34BD44
:1038500034BD349D3C9C3C9C3C9C3C9C44BC44BC46
:1038600044DC44DC4CBC44BC4CBC4CBC4CBC4CBCF0
:103870004CBC4CBC4C9C449B449C449C449B449BF3
:10388000449B449B449B449B4C9C4C9B449B449B2F
:10389000449B449B447B447B447B447B447B447BF0
:1038A000447B447B447B447B447B4C9B4C9C4C9BA7
:1038B00054BC64DB9DDCDF5FF7BFEF7FC6BEAE1C90
:1038C000A5FD9DDC9DDD7CFA649A5CBB5CBB5CBAAB
:1038D0006CDB7D5C857D857D6CFC6CFC5CBA5C99E9
:1038E0007D5BB6BFC6FFB69F955C8D7D0338033800
:1038F00003380338033803380338033803380338F0
:10390000033803380338033803580358035803585F
:103910000358035803790379037903790379037909
:1039200003790379037903790379037903790379B7
:10393000037903780379039903990399039903B9E8
:1039400003B9039903B903B9039903BA03BA03BAD4
:1039500003BA03BA03BA03BA03BA03BA03BA03BA7F
:1039600003BA03BA03BA03BA03BA039A03BA03BA8F
:1039700003BA03BA03BA03BA03BA03BA03DA03DA1F
:1039800003FA03FA03FA041B043B043B043C043C23
:10399000043B043B043B043B043B041B041B041B8F
:1039A000041B041B041B041B03FB03FB041B041B61
:1039B000041B041B041B041B041B041B041B041B0F
:1039C00003FB03FB03FB03FB03FB03FB03FB041BE6
:1039D000041B041B041B041B041B043B041B041BCF
:1039E000041B041B041B03FB03FB03FB03FB03DAA5
:1039F000041B041B041A03FA03DA24DE45BF3D5FEF
:103A00001CDE0C7C043B041A045C041B041B041B1A
:103A1000041B0C5C147C1C7C24BC2C9C2C7D2C7DFD
:103A20002C7D2C7C2C7B2C9C2CBD2CBD34BC34BC24
:103A30003CBC3CBC3C9C449C44BC44BC44BC44DCBE
:103A40004CDC4CDC4CDC4CDC4CDC4CDC4CDC4CDC36
:103A50004CDC4CDC4CBC4CBC4CBC4CBC4CBC4CBCE6
:103A600044BC44BC4CBC4CBC4CBC4CBC449B4CBB50
:103A70004CBB4C9B4C9B4C9B4C9B447B4C7B447B5E
:103A8000447B4C9B4C9B4C9B4C9B4C9B4C9B4C9B26
:103A900054BB6CFBA61DD73FF7DFE73FC67CA5BA3A
:103AA000B63DBE7FB65EA5FE64795CDB5CDB5CBACE
:103AB00064BA6D1B753C755C64DB549A5CBA64FA3D
:103AC0008DDDBF1FBEFFAE7F853B8D7D0338033884
:103AD000033803380338033803380338033803380E
:103AE000033803380338033803580358033803589E
:103AF0000358035803580379037903790379037949
:103B000003790379037903790379037903790379D5
:103B1000037903780379039903990399039903B906
:103B200003B9039903B903B9039903BA039A03BA12
:103B300003BA03BA03BA03BA03BA03BA03BA03BA9D
:103B4000039A03BA03BA03BA03BA03BA03BA03BAAD
:103B500003BA03BA03BA03BA03BA03BA03BA03BA7D
:103B600003DA03FA03DA03FA03FB041B041B041B46
:103B7000041B041B041B041B041B041B041B041B4D
:103B8000041B041B041B041B03FB03FB041B041B7F
:103B9000041B041B041B041B03FB03FB041B03FB90
:103BA00003FB03FB03FB03FB03FB041B03FB041BE3
:103BB000041B041B041B041B041B043B041B041BED
:103BC000041B041B03FB03FB03FB03FB03FB041BA2
:103BD00003FB03FA041A041A145C2CFE351E249C01
:103BE0000C7C03FA041A043B043B043B043C043CF5
:103BF000041B041B0C3B143B1C7C247D247D247D76
:103C00002C7D2C9C2C9C249C249C249C349C349C9B
:103C10003CBC3CBC3CBC44BC44BC44DC4CDD4CDC4B
:103C20004CFC4CFC54FC54FC54FC54FC4CFC4CFC34
:103C300054FD4CFC4CDC4CDC4CDC4CDC4CDC4CDCFB
:103C40004CDC44DC4CDC4CDC4CDC4CDC4CBC4CBC7C
:103C50004CBC4CBB4C9B4C9B4C9B4C9B4CBC4C9BCA
:103C60004C9B4C9B4C9B4C9B4C9B4C9B4C9B4C9B1C
:103C7000549B64DB8D9CBE9EE79FDF3FC69DA59A4B
:103C8000B63DBE9EB67FAE7F64BA5CDB5CDB5CDBC0
:103C900064DA5C9964DA6CFB64DB549A5CDA755C18
:103CA000859C95DC8D9B855A855B7D3B033803386D
:103CB000033803380338033803380338033803382C
:103CC00003380338033803380338035803380338FC
:103CD00003580358035803580358035803790379CA
:103CE00003790379037903790379037903790379F4
:103CF000037903780379039903990399039903B925
:103D000003B9039903B90399039903B9039A039A71
:103D1000039A039A03BA03BA03BA03BA03BA03BAFB
:103D200003BA03BA03BA03BA03BA03BA03BA03BAAB
:103D300003BA039A039A03BA03BA03BA03BA03BADB
:103D400003BA03DA03DA03DA03FB03FB03FA03FA29
:103D500003FB03FA03FA03FB03FB03FA03FB03FB76
:103D600003FB041B03FB03FB03FB03FB03FB03FB42
:103D700003FB03FB03FB03FB03FB03FB03FB03FB53
:103D800003FB03FB03FB03FB03FB03FB03FB03FB43
:103D9000041B03FB041B041B041B043C041B041B2B
:103DA000041B041B03FB03FB03FB03FB03FB041CBF
:103DB00003DA03FB041A0C1A2CFE1C5C249C1C5B0B
:103DC000147C043B041A043B043B041B041B043B0B
:103DD000041B043B043B0C3A0C5B145C145D1C5D3F
:103DE0001C7C249C249B249B249C2C9C2C9C34BCBD
:103DF00034BC3CBC3CBC44BC44DD44DC4CDD4CFD30
:103E00004CFC551D551D553D551D54FD551D551D4D
:103E1000551D551D54FD54FD54FD54FD4CFC4CFCEA
:103E20004CDC44DC4CDC4CDC4CBC4CBC4CBC4CDCBA
:103E30004CDC4CBB4CBB4CBB54BC54BC4C9B4CBB37
:103E40004C9B4CBB4C9B4CBB54BC54BB4C9B54BB81
:103E500054BB64FB7D5B9E1DD73FDF5FD71FC69DB4
:103E6000BE7EBE7EB67F8D9C755C651C5CDB5CBADD
:103E700064DA64DA64FB5CBA5CBB54BA6D7D6D1BBA
:103E800085BD95FD857B7D3B7D7C753B0338033887
:103E9000033803380338033803380338031803386A
:103EA000033803380338033803380358033803381A
:103EB0000338035803580358035803580379037908
:103EC0000379037903790379037903790379037912
:103ED0000379037803780379039903990399039984
:103EE0000399039903B903990399039903BA03BA90
:103EF00003BA03BA03BA03BA03BA03BA03BA03BADA
:103F000003BA03BA03BA03BA03BA03BA03BA03BAC9
:103F100003BA03BA039A039A03BA03BA03BA03BAF9
:103F200003BA03BA03BA03DA03FB03FB03FA03FA87
:103F300003FA03FA03FA03FA03FA03FA03FB03FB97
:103F400003FB03FB03FB03FB03FB03FB03FB03FB81
:103F500003FB03FB03FB03FB03FB03FB03FB03FB71
:103F600003FB03FB03FB03FB03FB03FB03FB03FB61
:103F700003FB03FB041B041B043B043C043B043B0A
:103F8000041B041B03FB03FB03FB03FB03FB03DB1F
:103F9000041B041B041A03FA1C9C249C1C3B249C39
:103FA000149C043B041B041A043B043B041B041B29
:103FB000043B043B043B043B043B043B041B0C1B41
:103FC0000C3B145B1C5B1C7B247C2CBD2CBC2CBCD4
:103FD00034BC34BC34BC3CBC3CBC3CBC3CBC44DC11
:103FE00044DC4CFD4D1D551D551D54FD54FD54FD27
:103FF000551D54FD54FD54FD54FC4CDC4CFC4CFC54
:104000004CFC4CDC4CDC4CBC4CBC4CBC4CDC54DCA8
:1040100054DC54DC54DC54DC54DC54DC54BB54BB62
:1040200054BB54BB4CBB54BB54DC54DB54BB54DBBF
:104030005CFC6D7D757C859CA65EB69FCF1FD73FCF
:10404000C6DFAE3D8D7B6CD9755C6D5D6D1C64FB10
:104050005CBA64DB5CDA5CBA54BA54BA64FB6D1BBC
:10406000859DA69F9E1E855B857C7D7C03380338DD
:104070000338033803380338033803380318033888
:104080000338033803380338033803380338033858
:104090000358035803580358035803580379037906
:1040A0000379037903790379037903790379037930
:1040B0000379037803780379037903790379039902
:1040C00003990399039903990399039903BA03BACE
:1040D00003BA03BA03BA03BA03BA03BA03BA03BAF8
:1040E00003BA03BA03BA03BA03BA03BA03BA03BAE8
:1040F00003BA03BA03BA03BA03BA03BA03BA03BAD8
:1041000003BA03BA03BA03BA03DA03DA03DA03FA27
:1041100003FA03FA03FA03FA03DB03FB03DB03FBF3
:1041200003FB03FB03FB03FB03FB03FB03FB03FB9F
:1041300003FB03FB03FB03FB03FB03FB03FB03FB8F
:1041400003FB03FB03FB03FB041B041B041B041BFB
:10415000041B03FB041B041B043C043C043C043C04
:10416000043B041B041B03FA03FA03FB03FB03FBDE
:10417000041C03FA041A0C5B0C3B24FE145B24BDE4
:104180000C5B043B0C3B041B041B041B041B041BA7
:10419000043B045B045B043B043B043B043B043BE7
:1041A0000C3B145B143B143B145C1C5C1C7C249C7B
:1041B000247C247C247C2C7C2C7C2C9C2C9C349C6F
:1041C00034BC3CBC3CDD44DD44DC44BC44BC4CDC85
:1041D0004CDC4CDC54DC4CDC4CDC4CDC4CDC4CDC97
:1041E0004CDC4CDC4CDC4CBC4CBC4CBC4CDC4CDCEF
:1041F00054FC54FC54DC54DC54DC54FC5CFC54DCB7
:1042000054DC54BB54BB54BB54BB54BB54DB54DBD5
:104210005CFC653C651C6D1B753B857CAE9FBEFFE1
:10422000AE7F8D7B6C9864DA6D3C759E755D6D3DDF
:1042300064BA5CBA5CBA5CDB5CDB5CBB64FB85BE0D
:104240008DBE95BD855B74FA6498753B0338033861
:1042500003380338033803380338033803180338A6
:104260000338033803380338033803380358035836
:104270000358035803580358035803580379037924
:10428000037903790379037903790379037903794E
:104290000379037803780379037903790379039920
:1042A00003790379039903990399039903BA03BA2C
:1042B00003BA03BA03BA03BA03BA03BA03BA03BA16
:1042C000039A03BA03BA03BA03BA03BA03BA03BA26
:1042D00003BA03BA03BA03BA03BA03BA03BA03BAF6
:1042E00003BA03BA03BA03BA03DA03DA03DA03FA46
:1042F00003FA03FA03FA03FA03DB03FB03DB03FB12
:1043000003FB03FB03FB03FB03FB03FB03FB03FBBD
:1043100003FB03FB03FB03FB03FB03FB03FB03FBAD
:1043200003FB03FB03FB03FB041B041B041B041B19
:10433000041B041B041B041B043C043C045C043CE1
:10434000043B043B041B03FA03FA03FB03FB03FBDC
:1043500003DB043C041A041A0C5B2D3F2D3F149C14
:10436000045B043C041B0C3C041B041B041B041BCB
:10437000043B043A043A043A043A043B043B043B49
:10438000043B0C5B145C145C145C143C0C3B143B51
:10439000143B143B143B1C3B1C3B1C5C247C247CCA
:1043A0002C9C2C9C349C349C349C349B3C9C44BC66
:1043B00044DC4CDD4CDD4CDC4CDC4CDC4CDC4CDCC3
:1043C0004CDC4CBC4CBC4CBC4CBC4CBC4CDC4CDC4D
:1043D00054FC54DC54DC54DC54FC5CFC5D1C5CFC84
:1043E0005CFC54DC54DB54DC54DC54DB54BB54DB49
:1043F0005D1C54DB54BB5CFB5CDB64DA753B857C89
:10440000751B6CDA64DA5CDA6D3C6D5D6D3D6D1CBC
:1044100064DB64DB64FB5CBA5CDB5CBB6CFC7D7DF9
:10442000855C8D7D855C6C996C99857C033803383F
:104430000338033803180318031803380338033804
:104440000338033803380338033803580338035854
:104450000358035803580358037903790358035842
:1044600003580358037903790379037903790379AE
:10447000037903790379037903780378037903795E
:10448000039903990399039903990399039A039A4A
:1044900003BA03BA03BA03BA03BA039A03BA03BA54
:1044A00003BA03BA03BA03BA03BA03BA03BA03BA24
:1044B00003BA03BA03BA03BA03BA03BA03BA03BA14
:1044C00003BA03BA03BA03BA03BA03BA03DA03DAC4
:1044D00003DA03DA03DB03DB03FB03FB03FB03FB6E
:1044E00003FB03FB03FB03FB03FB03FB03FB03FBDC
:1044F00003FB03FB03FB03FB03FB03FB03FB03FBCC
:1045000003FB03FB03FB041B041B041B041B041B16
:10451000041B041B041B041B043C043C043C045CFF
:10452000043B041B041B041B041B03FB041B03DBD5
:10453000041C041B041A043A043B24FE2D5F0C5B8C
:10454000045C043C045C041B041B043C041B0C1BA7
:104550000C3A0C190C190C1A0C1A0C3B043B043BBA
:10456000043B0C5B0C5C145C0C3C043C0C3B0C3BB7
:104570000C3B0C3B0C3B0C3B143B145C143B1C5C99
:104580001C5C1C5B247C247C2C9C2C7B347B349B0F
:104590003CBC44BC3C9C44BC4CDC4CBC4CBC4CBC0B
:1045A0004CBC4CBC4CBC4CBC4CBC4C9C4CBC4CDCCB
:1045B0004CDC54DC54DC4CBC54FC653D5D1D653D5D
:1045C0005CFC54DC5CFC5CFC54DB54DB54DB54DBF7
:1045D00054FB54FB54DB54DB54DB5CDB5CDA5CDA0D
:1045E00064DA5CDA5CDA5CBA5CDB64FB64FC6D1C8C
:1045F0006CFC64FB64FB64FB64FB5CBB64DB753DCF
:10460000855D8D9D853C7D3B857C9E1F03380338F1
:1046100003380338033803180338033803380338E2
:104620000338033803380338033803380358035872
:10463000035803580358035803790379037903791E
:10464000037903790379037903790379037903798A
:10465000037903790379037903780378037903797C
:10466000037903790399039903990399039A03BA88
:1046700003BA03BA03BA03BA03BA03BA039A03BA72
:1046800003BA039A039A03BA03BA039A03BA03BAA2
:1046900003BA03BA03BA03BA03BA03BA03BA03BA32
:1046A00003BA03BA03BA03BA03BA03DA03DA03DAC2
:1046B00003DA03DA03DA03DA03DB03FB03DB03DBEE
:1046C00003DB03DB03DB03DB03DB03DB03FB03FBBA
:1046D00003FB03FB03FB03FB03FB03FB03FB03FBEA
:1046E00003FB03FB03FB03FB041B041B041B03FB77
:1046F00003FB03FB041B041B043B043C043C043C81
:10470000043B041B041B041B041B041B03FB041CB1
:10471000041B043B043B041A041B043B041B043B22
:10472000045C041B045C0C3B0C3B0C1B141A0BB804
:1047300013B7139644FC5DDF34FE143B041B043BAB
:10474000043B045B0C5B0C3C041C041B043B043B5F
:104750000C3B0C3B0C3B0C3C0C3B0C3C0C3B145BF7
:10476000145C145B1C5B1C5C245B245B2C7B2C7B2F
:10477000349B3CBC3C9B44BC44BC449B44BB44BBBE
:10478000449B449B449B449B449B449B4CBC4CDCBF
:104790004CBC4CDC54DC54DC54DC5D1D651D651CDC
:1047A0005CFC5CFC5CFC5CDB5CDC5CDB5CFC54DBD4
:1047B0005CDB5CDB5CFB5CFC5CFC54DB5D1C5CFB85
:1047C0005CDB5CDB5CDB5CDB5CDB64DB64DB64FCF8
:1047D00064FB651C651C651B64FC5CBB64DB6CDBFB
:1047E0006CDB74FB7D1C857D8D9D8DBE033803388D
:1047F00003380338033803380338033803380338E1
:104800000338033803380358035803580358035830
:1048100003790379035803580379037903790379FA
:1048200003790379037903780379037903790379A9
:10483000037903790379037903780378037903799A
:10484000037903790379037903990399039A039A06
:10485000039A039A039A039A03BA03BA039A03BA10
:1048600003BA03BA039A03BA03BA039A03BA03DA80
:1048700003BA03BA03BA03BA03BA03BA03BA03BA50
:1048800003BA03BA03BA03BA03BA03DA03BA03BA20
:1048900003BA03BA03BA03BA03DA03DB03DB03DBAD
:1048A00003DB03DB03DB03DB03DB03DB03DB03DB18
:1048B00003DB03DB03DB03FB03FB03FB03FB03FB68
:1048C00003FB03FB03FB03FB03FB03FB03FB03FBF8
:1048D00003FB03FB041B041B043B043C043C043C9F
:1048E000043B041B041B041B041B041B03FB0C3CA8
:1048F00003FB041B041B043B043C043C03FA041BA1
:10490000045C043B043B0C3A043A0C19241875FE71
:1049100085FE7D7CA6DF8E7F44DD13FA043C043CDB
:10492000043B045B045B043B041B041B0C3B0C3B7F
:104930000C3B0C3B0C3B0C3B0C3B0C3C145C145BED
:10494000145B145B1C5B1C3B1C5B1C5B249B247B6F
:104950002C7B2C9B349B3CBC44DC44BC44BB44BB04
:1049600044BB449B449B449B44BB44BB44BC4CBCA5
:104970004CBC4CBB54DC54DC54DC5CFC651D64FC5E
:10498000651C653D651D5CFC651C64FC5CFC5CDBBA
:104990005CDB5CDB5CFB5CFB5CFB5CFB5D1B5D1B5D
:1049A000651B5CFB5CDB5CBB64BB64DB64FB651CA4
:1049B000651C651C6D3C651C651C64FB64BB64BAAE
:1049C00064BA64BA7D7C8DBE8DBD7D5C03380338CE
:1049D00003380338033803380338033803380338FF
:1049E000033803380358035803580358035803790E
:1049F00003790379037903580379037903790379F8
:104A000003790379037903780378037803790379C9
:104A100003790379037903790378037903790379B7
:104A2000037903790379037903990399039A039A24
:104A3000039A039A039A039A039A039A039A03BA6E
:104A400003BA03BA03BA03BA03BA039A03BA03BA9E
:104A500003BA03BA03BA03BA03BA03BA03BA03BA6E
:104A600003BA03BA03BA03BA03BA03DA03DA03DAFE
:104A700003BA03BA03BA03BA03BA03DA03DB03DBEC
:104A800003DB03DB03DB03DB03DB03DB03DB03DB36
:104A900003DB03DB03DB03DB03FB03FB03FB03FBA6
:104AA00003FB03FB03FB03FB03FB03FB03FB03FB16
:104AB00003FB041B041B041B043B043B043B043B9F
:104AC000043B041B041B041B041B041B041B03FBEF
:104AD00003FB041B149D1CDE0C5C041B0C3B0C1B19
:104AE000041B041A03F9141914391BF76D9CBF7FBA
:104AF000CF3FC6FFBF1F7D7E345B141B0C3C045CA4
:104B0000045C045C0C5B0C5B145C145C0C5B0C5C68
:104B1000145C0C5B0C3C0C3C143C145C147C145B6F
:104B2000145B145B1C5B1C3B1C5B1C5B247B249B8D
:104B30002C9B2C9B347B3C9B44DC4CFC4CDC44BBD2
:104B40004CBC44BB44BB4CBC4CBC4CDC44BB4CBB21
:104B50004CBB4CBB54DC54DC5CDC5CFC5CDB64FCC0
:104B600064FC6D1C6D3C651C651C651C64FC64FC70
:104B700064FB64FB64FB64FA64FB651B651B653CBA
:104B8000653C651C64FC64DB64DB6CDB6CFB6D1CEE
:104B9000651B6D3C6D3B6D3B6D3C6D1B6D1C64DBA3
:104BA00064BA64BA7D7C7D9D859D7D5B0338033846
:104BB000033803380338033803380338033803381D
:104BC0000358035803580358037903790379037989
:104BD00003790379037903790379037903790379F5
:104BE00003790379037903790379037903790379E5
:104BF00003790379037903790379037903790379D5
:104C00000379037903790379039903990399039944
:104C1000039A039A039A039A039A03990399039AAE
:104C2000039A039A039A03BA039A039A03BA03BA3C
:104C300003BA03BA03BA03BA03BA03BA03BA03BA8C
:104C400003BA03BA03BA03BA03BA03DA03DA03DA1C
:104C500003DA03BA03BA03BA03BA03BA03DB03DB0A
:104C600003DB03DB03DB03DB03DB03DB03DB03DB54
:104C700003DB03DB03DB03DB03DB03FB03FB03FBE4
:104C800003FB03FB03FB03FB03FB03FB03FB03FB34
:104C900003FB041B041B041B041B041B041B043B1D
:104CA000043C043B041B041B041B041B03FB041BEC
:104CB0000C3C041B0C5C0C5C041B145C0BFB24DD27
:104CC000147C24BC351D2C9A1BD72394AEBECF1F59
:104CD000E79FDF9FAE9F5CDB245A0C1B0C5C0C5CD7
:104CE0000C5C0C7C0C7C147C147C1C9C147C147C54
:104CF000147C145B0C3B0C3B143B145C145C145B89
:104D0000143B145B1C5B1C3B1C5B247B247B2C7BBB
:104D10002C9B349B349B3C9B44BB4CDC4CDC4CDBE1
:104D20004CDC4CDC4CDC4CBC4CBC4CBC4CBC4CDCC3
:104D30004CBC4CBB54DC5CFC5CFC651C651C6D5DB8
:104D40006D1C651C6D3C6D3C6D3C6D3C6D1C6D1CA3
:104D50006D3C6D3C6D1B6CFB6D1B6D3B6D3C6D3C90
:104D60006D3C6D3C753C753C751C6CFB6D1B6D1B87
:104D70006D1B753B6D1B6D1B6D1B6D1B6D1C64FBF3
:104D800064DA6CFB755C755B755B755B03380338C7
:104D900003380338033803380338033803580358FB
:104DA00003580358035803580358035803790379E9
:104DB0000379037903790379037903790379037913
:104DC0000379037903790379037903790379037903
:104DD00003790379037903790379037903790379F3
:104DE0000379037903790379037903990399039983
:104DF000039A039A039A039A039A03990399039ACD
:104E000003BA039A03BA03BA03BA03BA039A039A1A
:104E1000039A03BA03BA03BA03BA03BA03BA03BACA
:104E200003BA03BA03BA03BA03BA03BA03BA03DA7A
:104E300003DA03BA03BA03BA03BA03BA03DB03DB28
:104E400003DB03DB03DB03DB03DB03FB03DB03DB52
:104E500003DB03DB03DB03DB03FB03FB03FB03FBE2
:104E600003FB03FB03FB03FB03FB03FB03FB03FB52
:104E700003FB041B041B041B041B041B043B043C1A
:104E8000043C043C041B041B041B041B03FB041B09
:104E900003FB03FB045B043B041B0C1C249D351E1D
:104EA000141A245A6E3F869F5D1B755BCF3FDF7FD0
:104EB000DF7FBEFF8DFE3C591C5B0C5B045B0C5C12
:104EC0000C5C147C147C147C147C149C147C147C6A
:104ED000145C145B0C3B0C3B143B145C145C145BC7
:104EE000145B145C1C5C1C5B1C7B247C2C9C2C7B4E
:104EF000347B347B3C9C44BB4CBC54DC54FC54DCC5
:104F000054DC54DC54DC54DC54DC54DC4CDC54DC29
:104F100054DC54DB5CDC5CFC64FC6D1C7DBE8E1FD1
:104F20007D9E6D1B753C755C6D3C755D753C6D3C87
:104F30006D3C6D3C6D3C6D1B751B753B755C755C0C
:104F4000755C755C755C755C7D5C7D5C7D5C7D5CB9
:104F50007D3C7D5C7D5C753B751B753B6D1B6D1BE6
:104F60006D1B6D3B753C755C753B755B0338033899
:104F700003380338033803380358035803580358D9
:104F800003580358035803580358037803790379E7
:104F90000379037903790379037903790378037833
:104FA0000378037903790379037903790379037922
:104FB0000378037903790379037903790379037912
:104FC0000379037903990399039903990399039A40
:104FD000039A039A039A039A039A039A039A039AE9
:104FE00003BA03BA03BA03BA03BA03BA03BA03BAD9
:104FF00003BA03BA03BA03BA03BA03BA03BA03BAC9
:1050000003BA03BA03BA03BA03BA03BA03BA03BAB8
:1050100003DA03BA03BA03BA03BA03BA03BA03BA88
:1050200003BA03BA03BA03DB03DB03FB03DB03DBD3
:1050300003DB03DB03DB03DB03FB03FB03DB03FB20
:1050400003FB03FB03FB03FB03FB03FB03FB03FB70
:1050500003FB041B041B041B041C043C043C043C15
:10506000043C043C041B041B041B041B041B0C3CDD
:10507000041B041B043B0C9C043C1CBD355F1C7BC7
:1050800013F9451D7E1F861F7D9CBF3FD77FCF7FB5
:10509000961D759D553D13F9041A047B047B047A13
:1050A0000C5B147C145D145D147C1C9C1C7C1C7CAF
:1050B0001C7C145C145C143B143C143C145C145CA9
:1050C000145C1C7C1C7C247C247C2C9C34BC3CBC50
:1050D0003C9C449C4CBC4CBC54DC5D1D653D5D1D42
:1050E0005CFC5CFC5CFD5D1D5D1D5D1D54FC54FCA9
:1050F00054FC5CFC5CFC5CFC64FC6D3C8DFF963FEE
:1051000085BE753C753C753C753C6D3C755C6D5C55
:105110006D5C6D5C753C753C753C7D5D755D7D5D64
:105120007D7D7D7D7D5C7D5B7D7C859D8D9D8D9D6B
:105130008D9D95DE95DE8D9D857C7D5C7D5C755CB1
:105140006D1B6D3B753B755B7D7B85BC0338033800
:1051500003380338033803580359035903580358D5
:1051600003580358035803790379037903780378C4
:105170000378037903790379037903790378037852
:105180000378037903790379037903990379037821
:105190000378037903790379037903790379037930
:1051A000037903990399039903990399039A03993E
:1051B0000399039903990399039A039A0399039A0C
:1051C00003BA03BA03BA03BA03BA03BA03BA03BAF7
:1051D00003BA03BA03BA03BA03BA03BA03BA03BAE7
:1051E000039A039A03BA03BA03BA03BA03BA03BA17
:1051F00003DA03DA03BA03BA03BA03BA03BA03BA87
:1052000003BA03BA03BA03DB03DB03DB03DB03DB11
:1052100003DB03DB03DB03DB03FB03FB03DB03DB5E
:1052200003FB03FB03FB03FB03FB03FB041B041B4C
:1052300003FB03FB041B041B043C043C043C043C34
:10524000043C043C041B041B041B041B041B03FA46
:1052500003FB041B045C1D3F043B147C2D1E1C7BC4
:1052600013F9557F5D3D755DA69FAEFFB71F9E9FED
:10527000759D551C13F90C3A0C7B049B0C9B0C7A06
:105280000C5B145C145C1C7D1C7D1C9C1C9C1C9C7D
:105290001C7C1C7C1C7C1C5C145C143B145B145C30
:1052A0001C5C1C7C247C247C249C2C7C3CBC4CDD25
:1052B0004CFD54FD54FD54DC5CDC651D757E6D5E5B
:1052C000653D651D651D651D651D651C651C5D1CB9
:1052D0005D1C651C651C651C6D1C753C85DF8E1F87
:1052E0008DDE7D7D755C755C755C753C757C757C53
:1052F000759D757D7D7D7D5C7D7D859E7D7D857DBE
:10530000857D859D857C857C859C85BD95BD95BD70
:1053100095BDA61FA63F9DDE95BD8D9C7D5B7D3B0B
:10532000753B755B7D5B7D5B7D7B8DDD0318033895
:105330000318033803180338033803590338035894
:1053400003580359035903790379037903790379DE
:105350000379037903780378037803780378037972
:10536000039903990379037803790379037903791E
:10537000037903790379037903790379037903794D
:10538000037903990399039903990399039903995D
:10539000039903990399039903990399039A039A2B
:1053A00003BA039A039A03BA03BA03BA03BA03BA55
:1053B00003BA03BA03BA03BA03BA03BA03BA03BA05
:1053C00003BA03BA03BA03BA03BA03BA03BA03BAF5
:1053D00003BA03BA03BA03BA03DA03DA03DA03DA65
:1053E00003DA03DA03DB03DB03DB03DB03DB03DBCF
:1053F00003DB03DB03DB03DB03DB03DB03DB03DBBD
:1054000003DB03DB03FB03FB03FB03FB041B041BAA
:10541000041B041B043C043C043C043C043C043CCE
:10542000041C041C041B041B041B041B041B041B82
:10543000041B03FA045B149C041A0C7C24FD1CBCA2
:1054400024BC2CBC347B659F7E1F75BF659E65FFA9
:1054500044FC1C3A141B145C149C0C9C0C9B147B89
:10546000147C147C145C145C1C9C1CBC1C9C1C9C3C
:105470001C9C1C7B249C247B249C249B249C247C9F
:10548000247B247B2C7B2C7B2C9B3CBC4CDC54FD58
:105490005D3D653D653D653D6D3D6D5D757D757D34
:1054A000755D6D3D6D3D6D3D6D3D6D3D6D3C6D5C66
:1054B0006D5D6D5C6D5C755D755C753C85BE8DDE8E
:1054C00085DE7D7D7D5C7D7C7D5C7D5C755C7D7C31
:1054D0007D7C7D9D85BD85BD85BD859D857C857CCF
:1054E000859C859C859C857C859C8D9C95DD9DDD22
:1054F0009DDD9DFDA61E9DDD959B959C8D5B8D5B29
:10550000855B857C8D9C855C7D5B95FE03380338CF
:105510000338033803380338035803590358035832
:1055200003590359037903790379037903790379DB
:105530000379037903780378037803780378037891
:10554000039903990379037903790379037903793B
:1055500003790379037903790379035903590379AB
:10556000037903990399039903990399039903997B
:1055700003990399039903990399039A039A039A48
:10558000039A039A039A03BA03BA03BA03BA03BA93
:1055900003BA03BA03BA03BA03BA03BA03BA03BA23
:1055A00003BA03BA03BA03BA03BA03BA03BA03BA13
:1055B00003BA03BA03BA03BA03DA03DA03DA03DA83
:1055C00003DA03DA03DA03DB03DB03DB03DB03DBEE
:1055D00003DB03DB03DB03DB03DB03DB03DB03DBDB
:1055E00003DB03DB03DB03DB03FB03FB041B041B09
:1055F000041B043B043B043C043C043C043C043CCE
:10560000041C041C041B041B041B041B041B041BA0
:10561000043B041B041B0C5B041A045B1CDD1CBC58
:10562000145B249C2CBC349C347B451E34FC24BB72
:105630000BFA0C1A145C0C7C0C9C14BD149C149C6E
:10564000147C1C7C1C5C1C7C1C9C249C1C9C1CBC1A
:1056500024BC24BC2CBB2C7B2C9B2C9B34BC34BC8E
:105660003CDC3CDC3CDC3CBB44DC551D54FC5D1CA0
:10567000651D653D6D3D6D5D757D757D757D757DCA
:10568000757D757D755D755D755D755D755D757C2B
:10569000755C755C755C757D755C755C7D9D85BEA6
:1056A000859D7D7C755C7D7C7D7C7D7C7D7C857C29
:1056B000857C859C859C8DBD8DDD8DDD8DDD8DBDD5
:1056C0008DBD8DBD8D9C8D9C8D9C8DBD95DD9DDD95
:1056D0009DFDA61EA61E9DFDA5FDB67EB67F9DDD89
:1056E000959C959C95BD95DD95FEA65F0338033886
:1056F0000338033803380358035803790358035811
:1057000003790379037903780378037803790379BC
:10571000037903780378037803790379039903798C
:1057200003790399039903990399039903790379F9
:105730000379037903790379037903790379037989
:105740000379039903990399039903990399039999
:10575000039903990399039A039A039A039A039A64
:10576000039A039A039A039A03BA03BA03BA03BAD1
:1057700003BA03BA03BA03BA03BA03BA03BA03BA41
:1057800003BA03BA03BA03BA03BA03BA03BA03BA31
:1057900003BA03DA03DA03DA03DA03DA03DB03DB3F
:1057A00003DB03DB03DB03FB03FB03FB03DB03DBA9
:1057B00003DB03DB03DB03DB03DB03DB03FB03DBD9
:1057C00003DB03DB03DB03DB03FB03FB041B041B27
:1057D000041B043B041B041B041B041B041B041BB1
:1057E000041B041B041B041B041B03FB041B041BE2
:1057F000041B0C3C041B041B0C3B043B041A043B21
:10580000043A041A145B1C7B1C7B24BC149B0C5AAA
:10581000041A043B0C7C0C5C0C5B149C149C149CC4
:105820001C7B1C7C1C7C249C249C249C247C249C11
:105830002CDD2CDC34BC34BC3CDC44DC4D1D4D1D6B
:105840004CFD551D553D5D1D5D1C5D1C5D1C651CA5
:10585000653C6D3C6D5D757D757D757D757D757D7A
:105860007D7D7D7D7D7D7D7D7D7D757D757D757D80
:10587000755C757D7D7C7D7D7D7D7D7D859D859D3A
:10588000859D7D7D7D7C7D7C859D859D85BD8DBD3A
:105890008DBD85BD8DBD8DDD95FE95FE9E1E95FE53
:1058A00095DD95DD8DDD8DBD8DBD8DBD95FD95DCC9
:1058B0009DFDAE5EB69FAE7EB69FBEDFBEDFA61D6F
:1058C00095BC95DC9DDD9DFD9E1EA63F03380338EB
:1058D0000318033803380358035803580358037850
:1058E00003790379037903790379037903790379D8
:1058F000037803780378037803990399039903796C
:105900000379039903990399039903990378037918
:1059100003790379037903790379037903790379A7
:1059200003790399039903990399039903990399B7
:1059300003990399039A039A039A039A039A039A81
:10594000039A039A039A039A03BA03BA03BA03BAEF
:1059500003BA03BA03BA03BA03BA03BA03BA03BA5F
:1059600003BA03BA03BA03BA03BA03BA03BA03BA4F
:1059700003BA03DA03DA03DA03DA03DA03DA03DA5F
:1059800003DB03DB03DB03FB03FB03FB03DB03DBC7
:1059900003FB03FB03DB03DB03DB03DB03DB03DBD7
:1059A00003DB03DB03DB03DB03FB03FB041B041B45
:1059B000041B043C043C043B041B041C041B041B8C
:1059C000041B03FB03FB03FB03FB03FB041B041B84
:1059D000041B0C3C043C0C3C147D0C7C0C5C043B18
:1059E0000C5B0C5B0C3B043A0C5A03F90439043A87
:1059F000045B045B045B045C0C7C147C1C9C1C9CA2
:105A00001C7B245B247C247C2C9C2C9C2C7B2C9C41
:105A10003CDD3CDC44DC44DC551D553E551D5D3D04
:105A20005D3E653D655D6D3D6D3C6D3D6D5D6D5DE6
:105A3000757D757D757D7D9E7D9D7D7D7D7D7D9D4D
:105A40007D9D7D9D7D9D85BE859E7D9D7D7D755CBD
:105A5000755C757D7D7D7D7D7D7D859D85BD859D0F
:105A600085BD85BD859D85BD85BD85BD8DDD8DFED5
:105A70008DFE8DDD8DDD95DE95FE95FE95FE95FE08
:105A800095DD95DD95DD95DD8DBD8DBC95BC95BC19
:105A90009E1DAE7FAE7EAE5EB67EBEDFBEDFA61DB5
:105AA00095BB95BC959C959C95BC95BD031803181A
:105AB000031803380338035803580358035803786E
:105AC00003780379037903790379037903790379F7
:105AD0000378037803780379039903990399039969
